:100000000C9434000C9451000C9451000C94510049
:100010000C9451000C9451000C9451000C9451001C
:100020000C9451000C9451000C9451000C9451000C
:100030000C9451000C9451000C9451000C945100FC
:100040000C94C9000C9451000C9451000C94510074
:100050000C9451000C9451000C9451000C945100DC
:100060000C9451000C94510011241FBECFEFD8E026
:10007000DEBFCDBF11E0A0E0B1E0E4ECF5E002C0EE
:1000800005900D92A43CB107D9F721E0A4ECB1E0B2
:1000900001C01D92AC3DB207E1F70E9413010C9420
:1000A000E0020C9400009091C00095FFFCCF80937B
:1000B000C60008958F929F92AF92BF92EF92FF92E7
:1000C0001F93CF93DF93CDB7DEB72C970FB6F8947D
:1000D000DEBF0FBECDBFE12C2AE0822E912CA12CD9
:1000E000B12C611571058105910591F480E32C9681
:1000F0000FB6F894DEBF0FBECDBFDF91CF911F9139
:10010000FF90EF90BF90AF909F908F900C94530012
:1001100011E01E0D21E030E02C0F3D1F2E0D311D92
:100120007901A50194010E94AA02605DF701608334
:10013000B901CA01E12E611571058105910541F7EB
:10014000111110C02C960FB6F894DEBF0FBECDBFB4
:10015000DF91CF911F91FF90EF90BF90AF909F9054
:100160008F9008951150E1E0F0E0EC0FFD1FE10FDA
:10017000F11D80810E945300E3CFCF93DF93EC0108
:100180008991811103C0DF91CF9108950E9453009E
:10019000F7CF1F920F920FB60F9211242F933F9318
:1001A0008F939F93AF93BF938091D8019091D90182
:1001B000A091DA01B091DB013091D70123E0230F48
:1001C0002D3758F50196A11DB11D2093D7018093BD
:1001D000D8019093D901A093DA01B093DB0180910B
:1001E000D3019091D401A091D501B091D60101968F
:1001F000A11DB11D8093D3019093D401A093D5018B
:10020000B093D601BF91AF919F918F913F912F9164
:100210000F900FBE0F901F90189526E8230F02969F
:10022000A11DB11DD2CF789484B5826084BD84B500
:10023000816084BD85B5826085BD85B5816085BDE1
:1002400080916E00816080936E0010928100809199
:100250008100826080938100809181008160809321
:100260008100809180008160809380008091B10046
:1002700084608093B1008091B00081608093B00071
:1002800080917A00846080937A0080917A00826005
:1002900080937A0080917A00816080937A008091C7
:1002A0007A00806880937A001092C1008AB18C6FC6
:1002B0008AB924982C9A84B18F6084B987B18760F9
:1002C00087B98BB12091C90144E0249F900111248A
:1002D0008370822B8BB995B1E091C801F0E0E45FA7
:1002E000FE4F80818F70907F892B85B998B1E09106
:1002F000C801F0E0EE5FFE4F80818770987F892B08
:1003000088B91092C50098E09093C4008091C00015
:1003100082608093C0009093C10086E08093C20009
:1003200089E291E00E94BD000AE010E0C0E0D0E068
:100330008FB7F894C090D801D090D901E090DA013D
:10034000F090DB018FBF83B1BB24B394982F9071E1
:1003500084FFB12C80910101B81641F0C092CF0109
:10036000D092D001E092D101F092D2014091CF0120
:100370005091D0016091D1017091D20136014701B5
:10038000641A750A860A970AB401A301433351051A
:1003900061057105D8F080910001B816B9F0909010
:1003A000CE01B0920001911111C081E0911080E066
:1003B0008093CE0186E691E00E94BD0086E191E047
:1003C000992011F08FE191E00E94BD00B0920101EF
:1003D0008091CE01811168C08091CA019091CB01BA
:1003E000A091CC01B091CD01A7019601281B390B3A
:1003F0004A0B5B0BDA01C901843F9140A105B105AD
:1004000008F452C0C092CA01D092CB01E092CC0154
:10041000F092CD018091C9018F5F982F9F739093C7
:10042000C9012BB1237044E0949FC0011124822B99
:100430008BB980E991E00E94BD00C701B6010E941E
:100440005A0088EA91E00E94BD0085E0882E912C38
:10045000B090C9018B2D90E0082C02C0959587952E
:100460000A94E2F780FF60C081E30E94530051E0EC
:10047000851A910868F787EB91E00E94BD006B2D0B
:1004800070E090E080E00E945A008AEB91E00E94C8
:10049000BD006091C80170E090E080E00E945A00C9
:1004A0008CE191E00E94BD008091C4019091C50152
:1004B000A091C601B091C70136014701681A790AB7
:1004C0008A0A9B0AD401C301843F9140A105B1056A
:1004D00028F1C092C401D092C501E092C601F09209
:1004E000C7018091C80190E00196B8010E94960270
:1004F0008093C80125B1FC01E45FFE4F80818F70BD
:10050000207F822B85B998B1E091C801F0E0EE5FC1
:10051000FE4F80818770987F892B88B9209709F4D6
:1005200007CF0E94000004CF80E39FCF97FB072EE8
:1005300016F4009407D077FD09D00E94CC0207FC86
:1005400005D03EF4909581959F4F089570956195E3
:100550007F4F0895A1E21A2EAA1BBB1BFD010DC0FF
:10056000AA1FBB1FEE1FFF1FA217B307E407F50763
:1005700020F0A21BB30BE40BF50B661F771F881F3F
:10058000991F1A9469F760957095809590959B01D5
:10059000AC01BD01CF010895AA1BBB1B51E107C0EF
:1005A000AA1FBB1FA617B70710F0A61BB70B881F03
:1005B000991F5A95A9F780959095BC01CD01089592
:0405C000F894FFCFDD
:1005C40001010407020301010007000100090400FE
:1005D4000902020800005041555345440D0A0052D7
:1005E400554E4E494E470D0A005B54454C454D450A
:1005F4005452595D5B5054325D20362D426974204B
:10060400436F756E746572202620372D53656720FD
:10061400446973706C617920496E697469616C69AD
:100624007A65640D0A005B54454C454D4554525956
:100634005D5B5054325D20427574746F6E20546F4C
:1006440067676C65202D3E2053746174653A200001
:100654005B54454C454D455452595D5B5054325D95
:100664002054696D653A20006D73207C20436F75BA
:100674006E743A2030620020280029207C205365C3
:04068400673A2000B1
:00000001FF
