:100000000C9434000C9451000C9451000C94510049
:100010000C9451000C9451000C9451000C9451001C
:100020000C9451000C9451000C9451000C9451000C
:100030000C9451000C9451000C9451000C945100FC
:100040000C9453000C9451000C9451000C945100EA
:100050000C9451000C9451000C9451000C945100DC
:100060000C9451000C94510011241FBECFEFD8E026
:10007000DEBFCDBF11E0A0E0B1E0E8EDF3E002C0EB
:1000800005900D92A631B107D9F721E0A6E1B1E0C4
:1000900001C01D92AE32B207E1F70E949D000C94A0
:1000A000EA010C9400001F920F920FB60F921124D8
:1000B0002F933F938F939F93AF93BF9380912A0188
:1000C00090912B01A0912C01B0912D01309129012B
:1000D00023E0230F2D3758F50196A11DB11D209364
:1000E000290180932A0190932B01A0932C01B093B6
:1000F0002D018091250190912601A0912701B091B9
:1001000028010196A11DB11D809325019093260120
:10011000A0932701B0932801BF91AF919F918F9138
:100120003F912F910F900FBE0F901F90189526E8CA
:10013000230F0296A11DB11DD2CF789484B58260A1
:1001400084BD84B5816084BD85B5826085BD85B57B
:10015000816085BD80916E00816080936E001092F9
:100160008100809181008260809381008091810074
:100170008160809381008091800081608093800005
:100180008091B10084608093B1008091B000816063
:100190008093B00080917A00846080937A0080918F
:1001A0007A00826080937A0080917A0081608093E7
:1001B0007A0080917A00806880937A001092C10062
:1001C0008AB18C6F8AB9249884B18F6084B987B161
:1001D000876087B98BB120911B0194E0299F900122
:1001E00011248370822B8BB995B1E0911601F0E058
:1001F000E45FFE4F80818F70907F892B85B998B125
:10020000E0911601F0E0EE5FFE4F80818770987FED
:10021000892B88B90AE010E0C0E0D0E08FB7F894ED
:1002200040912A0150912B0160912C0170912D0178
:100230008FBF93B181E0392F307194FF80E09091AE
:100240000101891741F040932101509322016093ED
:10025000230170932401C0902101D0902201E090ED
:100260002301F09024014A015B018C189D08AE081F
:10027000BF087501640123E3C216D104E104F1044F
:1002800078F090910001891759F020912001809316
:100290000001311105C091E0211190E090932001FF
:1002A000809301018091200181112CC080911C015B
:1002B00090911D01A0911E01B0911F014A015B01A7
:1002C000881A990AAA0ABB0AD501C401843F914041
:1002D000A105B105B8F040931C0150931D01609336
:1002E0001E0170931F0180911B018F5F982F9F73D8
:1002F00090931B012BB1237034E0939FC001112414
:10030000822B8BB98091170190911801A09119014E
:10031000B0911A014A015B01881A990AAA0ABB0A1C
:10032000D501C401843F9140A105B10528F1409356
:100330001701509318016093190170931A0180916D
:10034000160190E00196B8010E94C2018093160147
:1003500025B1FC01E45FFE4F80818F70207F822BEE
:1003600085B998B1E0911601F0E0EE5FFE4F808113
:100370008770987F892B88B9209709F44FCF0E9406
:1003800000004CCF97FB072E16F4009407D077FDA2
:1003900009D00E94D60107FC05D03EF490958195C6
:1003A0009F4F0895709561957F4F0895AA1BBB1BC1
:1003B00051E107C0AA1FBB1FA617B70710F0A61B65
:1003C000B70B881F991F5A95A9F780959095BC0186
:0803D000CD010895F894FFCF60
:1003D80001010407020301010007000100090400EC
:0603E800090202080000FA
:00000001FF
