:100000000C9434000C9451000C9451000C94510049
:100010000C9451000C9451000C9451000C9451001C
:100020000C9451000C9451000C9451000C9451000C
:100030000C9451000C9451000C9451000C945100FC
:100040000C94B6000C9451000C9451000C94510087
:100050000C9451000C9451000C9451000C945100DC
:100060000C9451000C94510011241FBECFEFD8E026
:10007000DEBFCDBF12E0A0E0B1E0E2E6F3E002C0F7
:1000800005900D92A437B107D9F722E0A4E7B2E0BA
:1000900001C01D92AD37B207E1F70E9400010C9438
:1000A000AF010C9400003FB7F894809179029091D1
:1000B0007A02A0917B02B0917C0226B5A89B05C074
:1000C0002F3F19F00196A11DB11D3FBFBA2FA92FD7
:1000D000982F8827BC01CD01620F711D811D911DD4
:1000E00042E0660F771F881F991F4A95D1F7089540
:1000F0008F929F92AF92BF92CF92DF92EF92FF9238
:100100004B015C010E9453006B017C010E94530073
:100110006C197D098E099F09683E73408105910520
:10012000A8F321E0821A9108A108B10888EEC80E50
:1001300083E0D81EE11CF11C81149104A104B104D8
:1001400029F7FF90EF90DF90CF90BF90AF909F90F6
:100150008F900895FC019191911101C008958091B3
:10016000C00085FFFCCF9093C600F5CF1F920F9281
:100170000FB60F9211242F933F938F939F93AF93BA
:10018000BF938091750290917602A0917702B09111
:1001900078023091740223E0230F2D3758F5019631
:1001A000A11DB11D20937402809375029093760275
:1001B000A0937702B09378028091790290917A02AD
:1001C000A0917B02B0917C020196A11DB11D80938C
:1001D000790290937A02A0937B02B0937C02BF9144
:1001E000AF919F918F913F912F910F900FBE0F90E4
:1001F0001F90189526E8230F0296A11DB11DD2CF9E
:10020000789484B5826084BD84B5816084BD85B5F1
:10021000826085BD85B5816085BD80916E008160FD
:1002200080936E00109281008091810082608093A3
:1002300081008091810081608093810080918000A5
:100240008160809380008091B10084608093B100D0
:100250008091B00081608093B00080917A008460CA
:1002600080937A0080917A00826080937A008091F6
:100270007A00816080937A0080917A008068809310
:100280007A001092C1008AB18C6F8AB984B18F7CD8
:1002900084B985B1806385B980E38BB91092C500BC
:1002A00098E09093C4008091C00082608093C00069
:1002B0009093C10086E08093C20080E091E00E94AC
:1002C000AA00C0E0D0E01C9B02C01D9942C088E497
:1002D00091E00E94AA005C985B9A68EE73E080E06F
:1002E00090E00E94780087E891E00E94AA005B9865
:1002F0005A9A68EE73E080E090E00E94780080EB0C
:1003000091E00E94AA005D985F9A68E873E180E03E
:1003100090E00E9478008AED91E00E94AA005F9828
:100320005E9A68EE73E080E090E00E94780085E0DD
:1003300092E00E94AA005E985D9A68EE73E080E009
:1003400090E00E9478005A985C9A8EE292E00E94B7
:10035000AA00209709F4B7CF0E940000B4CFF89408
:02036000FFCFCD
:100362005B54454C454D455452595D5B5054315D8B
:100372002053797374656D20696E697469616C6963
:100382007A65642E2053746174653A2049444C4561
:1003920020284E533A20475245454E2C2045573A85
:1003A20020524544290D0A005B54454C454D4554A5
:1003B20052595D5B5054315D2053656E736F7220EC
:1003C200547269676765726564202D3E20506861CA
:1003D200736520313A204E532059656C6C6F77203B
:1003E200283173290D0A005B54454C454D45545242
:1003F200595D5B5054315D20506861736520323A1B
:1004020020416C6C2052656420283173290D0A004A
:100412005B54454C454D455452595D5B5054315DDA
:1004220020506861736520333A2045572047726532
:10043200656E20283573290D0A005B54454C454DE5
:10044200455452595D5B5054315D2050686173656B
:1004520020343A2045572059656C6C6F772028313B
:1004620073290D0A005B54454C454D455452595D64
:100472005B5054315D20506861736520353A2041EC
:100482006C6C2052656420283173290D0A005B547C
:10049200454C454D455452595D5B5054315D2043A6
:1004A20079636C6520436F6D706C657465202D3EB9
:1004B2002053746174653A2049444C4520284E53B8
:1004C2003A20475245454E2C2045573A2052454442
:0404D200290D0A00E6
:00000001FF
